:020000040000FA
:100000007C28A5006E30A600000000000000000063
:1000100000000000A60B0428A50B02280800000021
:1000200000000000000000000000000000001F159C
:10003000000000001F191A2883161E088312A90049
:100040000310290CB500A90008000530C300C30B3C
:1000500027280800CC0120303A20CC0A50304C062A
:10006000031D2B28080088000710871425208710FF
:1000700025200800880007148714252087102520D4
:100080000800A400A4032408FF3A03190800B10AD9
:1000900031080A3A031D4228B101B20A32080A3A6D
:1000A000031D4228B201B30A4228B000B101B201D7
:1000B000B3014030301B41202030B01A41201030B5
:1000C000301A41200830B019412004303019412045
:1000D0000230B01841200130301841203030B307D1
:1000E0003030B2073030B107080033083A20320808
:1000F0003A2031083A200800830183167F308500BA
:10010000FF308600FC30870000308800AC3089006A
:100110008E309F00831264300120383033200C3041
:10012000332006303320803033202A2081309F0056
:100130000F208030332054303A2045303A204D3063
:100140003A2050303A2045303A2058303A20543046
:100150003A20552089309F000F20C0303320543082
:100160003A2045303A204D303A2050303A2049303C
:100170003A204E303A2054303A20552041309F00EA
:100180000F20350855208730332033083A203208B5
:100190003A2031083A2089309F000F203508552039
:1001A000C730332033083A2032083A2031083A2049
:0601B00084303320992881
:02400E00F13F80
:00000001FF
