:020000040000FA
:1000000022282B30A000E230A100CD30A200000059
:100010000000A20B0728A10B0528A00B0328000055
:10002000080003138316FF308500F7308600E730A1
:100030008700E7308800EF308900F7309F00030128
:1000400083120800112000008601870106182A2863
:10005000871526280000871101200716061D36285F
:10006000012086150120012086112E28861C2E28AD
:0E0070008615012001208611362822288615CB
:02400E00F13F80
:00000001FF
