:020000040000FA
:100000005528B0006E30B100000000000000000074
:1000100000000000B10B0428B00B02280800820782
:100020003F3406345B344F3466346D347D340734EA
:100030007F346F3420080F2086008714053001209C
:10004000871021080F2086000714053001200710B3
:100050000800031383167F30850080308600FC3053
:100060008700F0308800EE30890001309F00831255
:1000700081309F0008000000000000000000000028
:100080000000000000001F15000000001F19462896
:100090001E08A0000800A1010A30A002031C52287B
:1000A000A10A4D28A00700340800292086018701F5
:1000B00088013B2000004B201A201F302002031C27
:1000C0006428031D67285528081088145928081427
:0600D0000815592855280F
:02400E00F13F80
:00000001FF
