:020000040000FA
:100000005628B0006E30B100000000000000000073
:1000100000000000B10B0428B00B02280800820782
:10002000C034F934A434B034993492348334F8347D
:100030008034903420080F2086008710053001207E
:10004000871421080F2086000710053001200714AF
:100050000800031383167F30850080308600FC3053
:100060008700F0308800EE30890001309F00831255
:1000700081309F0008000000000000000000000028
:100080000000000000001F15000000001F19462896
:100090001E08A200A0000800A1010A30A002031C53
:1000A0005328A10A4E28A007003408002920860101
:1000B0008701880188153B2000004C201A20203041
:1000C0002202031C6728031D00006B285628081015
:1000D000081188145B280814881008155B28562816
:02400E00F13F80
:00000001FF
